{
  "_format": "hh-sol-artifact-1",
  "contractName": "UBI",
  "sourceName": "contracts/UBI.sol",
  "abi": [
    {
      "anonymous": false,
      "inputs": [
        {
          "indexed": true,
          "internalType": "address",
          "name": "previousOwner",
          "type": "address"
        },
        {
          "indexed": true,
          "internalType": "address",
          "name": "newOwner",
          "type": "address"
        }
      ],
      "name": "OwnershipTransferred",
      "type": "event"
    },
    {
      "anonymous": false,
      "inputs": [
        {
          "indexed": false,
          "internalType": "address",
          "name": "_userAdress",
          "type": "address"
        },
        {
          "indexed": false,
          "internalType": "uint256",
          "name": "_chainId",
          "type": "uint256"
        }
      ],
      "name": "UserBoughtSubscription",
      "type": "event"
    },
    {
      "inputs": [],
      "name": "buySubscription",
      "outputs": [],
      "stateMutability": "payable",
      "type": "function"
    },
    {
      "inputs": [],
      "name": "owner",
      "outputs": [
        {
          "internalType": "address",
          "name": "",
          "type": "address"
        }
      ],
      "stateMutability": "view",
      "type": "function"
    },
    {
      "inputs": [],
      "name": "renounceOwnership",
      "outputs": [],
      "stateMutability": "nonpayable",
      "type": "function"
    },
    {
      "inputs": [
        {
          "internalType": "address",
          "name": "",
          "type": "address"
        }
      ],
      "name": "subscriptions",
      "outputs": [
        {
          "internalType": "uint256",
          "name": "daysLeftOfSubscription",
          "type": "uint256"
        },
        {
          "internalType": "uint256",
          "name": "lastClaimedDate",
          "type": "uint256"
        }
      ],
      "stateMutability": "view",
      "type": "function"
    },
    {
      "inputs": [
        {
          "internalType": "address[]",
          "name": "users",
          "type": "address[]"
        }
      ],
      "name": "synchronizeSubscriptions",
      "outputs": [],
      "stateMutability": "nonpayable",
      "type": "function"
    },
    {
      "inputs": [
        {
          "internalType": "address",
          "name": "newOwner",
          "type": "address"
        }
      ],
      "name": "transferOwnership",
      "outputs": [],
      "stateMutability": "nonpayable",
      "type": "function"
    },
    {
      "inputs": [],
      "name": "withdrawReward",
      "outputs": [],
      "stateMutability": "nonpayable",
      "type": "function"
    }
  ],
  "bytecode": "0x608060405234801561001057600080fd5b5061002d61002261003260201b60201c565b61003a60201b60201c565b6100fe565b600033905090565b60008060009054906101000a900473ffffffffffffffffffffffffffffffffffffffff169050816000806101000a81548173ffffffffffffffffffffffffffffffffffffffff021916908373ffffffffffffffffffffffffffffffffffffffff1602179055508173ffffffffffffffffffffffffffffffffffffffff168173ffffffffffffffffffffffffffffffffffffffff167f8be0079c531659141344cd1fd0a4f28419497f9722a3daafe3b4186f6b6457e060405160405180910390a35050565b61140c8061010d6000396000f3fe6080604052600436106100705760003560e01c80638da5cb5b1161004e5780638da5cb5b146100bf578063c885bc58146100ea578063f046395a14610101578063f2fde38b1461013f57610070565b80632718b175146100755780634163cce81461007f578063715018a6146100a8575b600080fd5b61007d610168565b005b34801561008b57600080fd5b506100a660048036038101906100a19190610d54565b6103e9565b005b3480156100b457600080fd5b506100bd610635565b005b3480156100cb57600080fd5b506100d46106bd565b6040516100e19190610e85565b60405180910390f35b3480156100f657600080fd5b506100ff6106e6565b005b34801561010d57600080fd5b5061012860048036038101906101239190610d2b565b610a98565b604051610136929190610f89565b60405180910390f35b34801561014b57600080fd5b5061016660048036038101906101619190610d2b565b610abc565b005b600046905060048114156101c457660775f05a07400034146101bf576040517f08c379a00000000000000000000000000000000000000000000000000000000081526004016101b690610f49565b60405180910390fd5b6102c0565b6201388181141561021e5767016345785d8a00003414610219576040517f08c379a000000000000000000000000000000000000000000000000000000000815260040161021090610f49565b60405180910390fd5b6102bf565b606181141561027557660110d9316ec0003414610270576040517f08c379a000000000000000000000000000000000000000000000000000000000815260040161026790610f49565b60405180910390fd5b6102be565b6000151560011515146102bd576040517f08c379a00000000000000000000000000000000000000000000000000000000081526004016102b490610ec9565b60405180910390fd5b5b5b5b6000600160003373ffffffffffffffffffffffffffffffffffffffff1673ffffffffffffffffffffffffffffffffffffffff1681526020019081526020016000206000015414156103535742600160003373ffffffffffffffffffffffffffffffffffffffff1673ffffffffffffffffffffffffffffffffffffffff168152602001908152602001600020600101819055505b601c600160003373ffffffffffffffffffffffffffffffffffffffff1673ffffffffffffffffffffffffffffffffffffffff16815260200190815260200160002060000160008282546103a69190611014565b925050819055507fa5f5fd5e83f3d36d626effba218e60499f82fab53e7b143ceb65debc1ed6ee6933826040516103de929190610ea0565b60405180910390a150565b6103f1610bb4565b73ffffffffffffffffffffffffffffffffffffffff1661040f6106bd565b73ffffffffffffffffffffffffffffffffffffffff1614610465576040517f08c379a000000000000000000000000000000000000000000000000000000000815260040161045c90610f69565b60405180910390fd5b60005b8151811015610631576000600160008484815181106104b0577f4e487b7100000000000000000000000000000000000000000000000000000000600052603260045260246000fd5b602002602001015173ffffffffffffffffffffffffffffffffffffffff1673ffffffffffffffffffffffffffffffffffffffff16815260200190815260200160002060000154141561058457426001600084848151811061053a577f4e487b7100000000000000000000000000000000000000000000000000000000600052603260045260246000fd5b602002602001015173ffffffffffffffffffffffffffffffffffffffff1673ffffffffffffffffffffffffffffffffffffffff168152602001908152602001600020600101819055505b601c600160008484815181106105c3577f4e487b7100000000000000000000000000000000000000000000000000000000600052603260045260246000fd5b602002602001015173ffffffffffffffffffffffffffffffffffffffff1673ffffffffffffffffffffffffffffffffffffffff16815260200190815260200160002060000160008282546106179190611014565b92505081905550808061062990611196565b915050610468565b5050565b61063d610bb4565b73ffffffffffffffffffffffffffffffffffffffff1661065b6106bd565b73ffffffffffffffffffffffffffffffffffffffff16146106b1576040517f08c379a00000000000000000000000000000000000000000000000000000000081526004016106a890610f69565b60405180910390fd5b6106bb6000610bbc565b565b60008060009054906101000a900473ffffffffffffffffffffffffffffffffffffffff16905090565b6000600160003373ffffffffffffffffffffffffffffffffffffffff1673ffffffffffffffffffffffffffffffffffffffff168152602001908152602001600020600001541161076b576040517f08c379a000000000000000000000000000000000000000000000000000000000815260040161076290610f29565b60405180910390fd5b4262015180600160003373ffffffffffffffffffffffffffffffffffffffff1673ffffffffffffffffffffffffffffffffffffffff168152602001908152602001600020600101546107bd9190611014565b11156107fe576040517f08c379a00000000000000000000000000000000000000000000000000000000081526004016107f590610ee9565b60405180910390fd5b600046905060006018610e10600160003373ffffffffffffffffffffffffffffffffffffffff1673ffffffffffffffffffffffffffffffffffffffff168152602001908152602001600020600101544261085891906110f5565b610862919061106a565b61086c919061106a565b905080600160003373ffffffffffffffffffffffffffffffffffffffff1673ffffffffffffffffffffffffffffffffffffffff16815260200190815260200160002060000160008282546108c091906110f5565b9250508190555042600160003373ffffffffffffffffffffffffffffffffffffffff1673ffffffffffffffffffffffffffffffffffffffff1681526020019081526020016000206001018190555060003390506004831415610979578073ffffffffffffffffffffffffffffffffffffffff166108fc836516bcc41e9000610948919061109b565b9081150290604051600060405180830381858888f19350505050158015610973573d6000803e3d6000fd5b50610a93565b620138818314156109e2578073ffffffffffffffffffffffffffffffffffffffff166108fc8366043a4c774860006109b1919061109b565b9081150290604051600060405180830381858888f193505050501580156109dc573d6000803e3d6000fd5b50610a92565b6061831415610a48578073ffffffffffffffffffffffffffffffffffffffff166108fc8365032ee841b800610a17919061109b565b9081150290604051600060405180830381858888f19350505050158015610a42573d6000803e3d6000fd5b50610a91565b600015156001151514610a90576040517f08c379a0000000000000000000000000000000000000000000000000000000008152600401610a8790610ec9565b60405180910390fd5b5b5b5b505050565b60016020528060005260406000206000915090508060000154908060010154905082565b610ac4610bb4565b73ffffffffffffffffffffffffffffffffffffffff16610ae26106bd565b73ffffffffffffffffffffffffffffffffffffffff1614610b38576040517f08c379a0000000000000000000000000000000000000000000000000000000008152600401610b2f90610f69565b60405180910390fd5b600073ffffffffffffffffffffffffffffffffffffffff168173ffffffffffffffffffffffffffffffffffffffff161415610ba8576040517f08c379a0000000000000000000000000000000000000000000000000000000008152600401610b9f90610f09565b60405180910390fd5b610bb181610bbc565b50565b600033905090565b60008060009054906101000a900473ffffffffffffffffffffffffffffffffffffffff169050816000806101000a81548173ffffffffffffffffffffffffffffffffffffffff021916908373ffffffffffffffffffffffffffffffffffffffff1602179055508173ffffffffffffffffffffffffffffffffffffffff168173ffffffffffffffffffffffffffffffffffffffff167f8be0079c531659141344cd1fd0a4f28419497f9722a3daafe3b4186f6b6457e060405160405180910390a35050565b6000610c93610c8e84610fd7565b610fb2565b90508083825260208201905082856020860282011115610cb257600080fd5b60005b85811015610ce25781610cc88882610cec565b845260208401935060208301925050600181019050610cb5565b5050509392505050565b600081359050610cfb816113bf565b92915050565b600082601f830112610d1257600080fd5b8135610d22848260208601610c80565b91505092915050565b600060208284031215610d3d57600080fd5b6000610d4b84828501610cec565b91505092915050565b600060208284031215610d6657600080fd5b600082013567ffffffffffffffff811115610d8057600080fd5b610d8c84828501610d01565b91505092915050565b610d9e81611129565b82525050565b6000610db1601083611003565b9150610dbc8261127d565b602082019050919050565b6000610dd4603283611003565b9150610ddf826112a6565b604082019050919050565b6000610df7602683611003565b9150610e02826112f5565b604082019050919050565b6000610e1a601d83611003565b9150610e2582611344565b602082019050919050565b6000610e3d601583611003565b9150610e488261136d565b602082019050919050565b6000610e60602083611003565b9150610e6b82611396565b602082019050919050565b610e7f8161115b565b82525050565b6000602082019050610e9a6000830184610d95565b92915050565b6000604082019050610eb56000830185610d95565b610ec26020830184610e76565b9392505050565b60006020820190508181036000830152610ee281610da4565b9050919050565b60006020820190508181036000830152610f0281610dc7565b9050919050565b60006020820190508181036000830152610f2281610dea565b9050919050565b60006020820190508181036000830152610f4281610e0d565b9050919050565b60006020820190508181036000830152610f6281610e30565b9050919050565b60006020820190508181036000830152610f8281610e53565b9050919050565b6000604082019050610f9e6000830185610e76565b610fab6020830184610e76565b9392505050565b6000610fbc610fcd565b9050610fc88282611165565b919050565b6000604051905090565b600067ffffffffffffffff821115610ff257610ff161123d565b5b602082029050602081019050919050565b600082825260208201905092915050565b600061101f8261115b565b915061102a8361115b565b9250827fffffffffffffffffffffffffffffffffffffffffffffffffffffffffffffffff0382111561105f5761105e6111df565b5b828201905092915050565b60006110758261115b565b91506110808361115b565b9250826110905761108f61120e565b5b828204905092915050565b60006110a68261115b565b91506110b18361115b565b9250817fffffffffffffffffffffffffffffffffffffffffffffffffffffffffffffffff04831182151516156110ea576110e96111df565b5b828202905092915050565b60006111008261115b565b915061110b8361115b565b92508282101561111e5761111d6111df565b5b828203905092915050565b60006111348261113b565b9050919050565b600073ffffffffffffffffffffffffffffffffffffffff82169050919050565b6000819050919050565b61116e8261126c565b810181811067ffffffffffffffff8211171561118d5761118c61123d565b5b80604052505050565b60006111a18261115b565b91507fffffffffffffffffffffffffffffffffffffffffffffffffffffffffffffffff8214156111d4576111d36111df565b5b600182019050919050565b7f4e487b7100000000000000000000000000000000000000000000000000000000600052601160045260246000fd5b7f4e487b7100000000000000000000000000000000000000000000000000000000600052601260045260246000fd5b7f4e487b7100000000000000000000000000000000000000000000000000000000600052604160045260246000fd5b6000601f19601f8301169050919050565b7f556e6b6e6f776e206e6574776f726b2100000000000000000000000000000000600082015250565b7f596f75206e65656420746f2077616974206174206c656173742031206461792060008201527f746f20776974686472617720616761696e210000000000000000000000000000602082015250565b7f4f776e61626c653a206e6577206f776e657220697320746865207a65726f206160008201527f6464726573730000000000000000000000000000000000000000000000000000602082015250565b7f596f7520646f6e27742068617665206120737562736372697074696f6e000000600082015250565b7f496e636f727265637420616d6f756e742073656e740000000000000000000000600082015250565b7f4f776e61626c653a2063616c6c6572206973206e6f7420746865206f776e6572600082015250565b6113c881611129565b81146113d357600080fd5b5056fea2646970667358221220bf92026d499d7eb21b87a99f3c7c9ede120e31975c9c1007a2773fe0d03f0e4b64736f6c63430008040033",
  "linkReferences": {},
  "deployedLinkReferences": {}
}