{
  "_format": "hh-sol-artifact-1",
  "contractName": "UBI",
  "sourceName": "contracts/UBI.sol",
  "abi": [
    {
      "anonymous": false,
      "inputs": [
        {
          "indexed": true,
          "internalType": "address",
          "name": "previousOwner",
          "type": "address"
        },
        {
          "indexed": true,
          "internalType": "address",
          "name": "newOwner",
          "type": "address"
        }
      ],
      "name": "OwnershipTransferred",
      "type": "event"
    },
    {
      "anonymous": false,
      "inputs": [
        {
          "indexed": false,
          "internalType": "address",
          "name": "_userAdress",
          "type": "address"
        },
        {
          "indexed": false,
          "internalType": "uint256",
          "name": "_chainID",
          "type": "uint256"
        }
      ],
      "name": "UserBoughtSubscription",
      "type": "event"
    },
    {
      "inputs": [],
      "name": "buySubscription",
      "outputs": [],
      "stateMutability": "payable",
      "type": "function"
    },
    {
      "inputs": [],
      "name": "owner",
      "outputs": [
        {
          "internalType": "address",
          "name": "",
          "type": "address"
        }
      ],
      "stateMutability": "view",
      "type": "function"
    },
    {
      "inputs": [],
      "name": "renounceOwnership",
      "outputs": [],
      "stateMutability": "nonpayable",
      "type": "function"
    },
    {
      "inputs": [
        {
          "internalType": "address",
          "name": "",
          "type": "address"
        }
      ],
      "name": "subscriptions",
      "outputs": [
        {
          "internalType": "uint256",
          "name": "daysLeftOfSubscription",
          "type": "uint256"
        },
        {
          "internalType": "uint256",
          "name": "lastClaimedDate",
          "type": "uint256"
        }
      ],
      "stateMutability": "view",
      "type": "function"
    },
    {
      "inputs": [
        {
          "internalType": "address[]",
          "name": "users",
          "type": "address[]"
        }
      ],
      "name": "synchronizeSubscriptions",
      "outputs": [],
      "stateMutability": "nonpayable",
      "type": "function"
    },
    {
      "inputs": [
        {
          "internalType": "address",
          "name": "newOwner",
          "type": "address"
        }
      ],
      "name": "transferOwnership",
      "outputs": [],
      "stateMutability": "nonpayable",
      "type": "function"
    },
    {
      "inputs": [],
      "name": "withdrawReward",
      "outputs": [],
      "stateMutability": "nonpayable",
      "type": "function"
    }
  ],
  "bytecode": "0x608060405234801561001057600080fd5b5061002d61002261003260201b60201c565b61003a60201b60201c565b6100fe565b600033905090565b60008060009054906101000a900473ffffffffffffffffffffffffffffffffffffffff169050816000806101000a81548173ffffffffffffffffffffffffffffffffffffffff021916908373ffffffffffffffffffffffffffffffffffffffff1602179055508173ffffffffffffffffffffffffffffffffffffffff168173ffffffffffffffffffffffffffffffffffffffff167f8be0079c531659141344cd1fd0a4f28419497f9722a3daafe3b4186f6b6457e060405160405180910390a35050565b6112e78061010d6000396000f3fe6080604052600436106100705760003560e01c80638da5cb5b1161004e5780638da5cb5b146100bf578063c885bc58146100ea578063f046395a14610101578063f2fde38b1461013f57610070565b80632718b175146100755780634163cce81461007f578063715018a6146100a8575b600080fd5b61007d610168565b005b34801561008b57600080fd5b506100a660048036038101906100a19190610cc1565b6103e9565b005b3480156100b457600080fd5b506100bd610635565b005b3480156100cb57600080fd5b506100d46106bd565b6040516100e19190610dcf565b60405180910390f35b3480156100f657600080fd5b506100ff6106e6565b005b34801561010d57600080fd5b5061012860048036038101906101239190610c98565b610a05565b604051610136929190610eb3565b60405180910390f35b34801561014b57600080fd5b5061016660048036038101906101619190610c98565b610a29565b005b600046905060048114156101c457660775f05a07400034146101bf576040517f08c379a00000000000000000000000000000000000000000000000000000000081526004016101b690610e73565b60405180910390fd5b6102c0565b6201388181141561021e5767016345785d8a00003414610219576040517f08c379a000000000000000000000000000000000000000000000000000000000815260040161021090610e73565b60405180910390fd5b6102bf565b606181141561027557660110d9316ec0003414610270576040517f08c379a000000000000000000000000000000000000000000000000000000000815260040161026790610e73565b60405180910390fd5b6102be565b6000151560011515146102bd576040517f08c379a00000000000000000000000000000000000000000000000000000000081526004016102b490610e13565b60405180910390fd5b5b5b5b6000600160003373ffffffffffffffffffffffffffffffffffffffff1673ffffffffffffffffffffffffffffffffffffffff1681526020019081526020016000206000015414156103535742600160003373ffffffffffffffffffffffffffffffffffffffff1673ffffffffffffffffffffffffffffffffffffffff168152602001908152602001600020600101819055505b601c600160003373ffffffffffffffffffffffffffffffffffffffff1673ffffffffffffffffffffffffffffffffffffffff16815260200190815260200160002060000160008282546103a69190610f3e565b925050819055507fa5f5fd5e83f3d36d626effba218e60499f82fab53e7b143ceb65debc1ed6ee6933826040516103de929190610dea565b60405180910390a150565b6103f1610b21565b73ffffffffffffffffffffffffffffffffffffffff1661040f6106bd565b73ffffffffffffffffffffffffffffffffffffffff1614610465576040517f08c379a000000000000000000000000000000000000000000000000000000000815260040161045c90610e93565b60405180910390fd5b60005b8151811015610631576000600160008484815181106104b0577f4e487b7100000000000000000000000000000000000000000000000000000000600052603260045260246000fd5b602002602001015173ffffffffffffffffffffffffffffffffffffffff1673ffffffffffffffffffffffffffffffffffffffff16815260200190815260200160002060000154141561058457426001600084848151811061053a577f4e487b7100000000000000000000000000000000000000000000000000000000600052603260045260246000fd5b602002602001015173ffffffffffffffffffffffffffffffffffffffff1673ffffffffffffffffffffffffffffffffffffffff168152602001908152602001600020600101819055505b601c600160008484815181106105c3577f4e487b7100000000000000000000000000000000000000000000000000000000600052603260045260246000fd5b602002602001015173ffffffffffffffffffffffffffffffffffffffff1673ffffffffffffffffffffffffffffffffffffffff16815260200190815260200160002060000160008282546106179190610f3e565b925050819055508080610629906110c0565b915050610468565b5050565b61063d610b21565b73ffffffffffffffffffffffffffffffffffffffff1661065b6106bd565b73ffffffffffffffffffffffffffffffffffffffff16146106b1576040517f08c379a00000000000000000000000000000000000000000000000000000000081526004016106a890610e93565b60405180910390fd5b6106bb6000610b29565b565b60008060009054906101000a900473ffffffffffffffffffffffffffffffffffffffff16905090565b6000600160003373ffffffffffffffffffffffffffffffffffffffff1673ffffffffffffffffffffffffffffffffffffffff168152602001908152602001600020600001541161076b576040517f08c379a000000000000000000000000000000000000000000000000000000000815260040161076290610e53565b60405180910390fd5b600046905060006018610e10600160003373ffffffffffffffffffffffffffffffffffffffff1673ffffffffffffffffffffffffffffffffffffffff16815260200190815260200160002060010154426107c5919061101f565b6107cf9190610f94565b6107d99190610f94565b905080600160003373ffffffffffffffffffffffffffffffffffffffff1673ffffffffffffffffffffffffffffffffffffffff168152602001908152602001600020600001600082825461082d919061101f565b9250508190555042600160003373ffffffffffffffffffffffffffffffffffffffff1673ffffffffffffffffffffffffffffffffffffffff16815260200190815260200160002060010181905550600033905060048314156108e6578073ffffffffffffffffffffffffffffffffffffffff166108fc836516bcc41e90006108b59190610fc5565b9081150290604051600060405180830381858888f193505050501580156108e0573d6000803e3d6000fd5b50610a00565b6201388183141561094f578073ffffffffffffffffffffffffffffffffffffffff166108fc8366043a4c7748600061091e9190610fc5565b9081150290604051600060405180830381858888f19350505050158015610949573d6000803e3d6000fd5b506109ff565b60618314156109b5578073ffffffffffffffffffffffffffffffffffffffff166108fc8365032ee841b8006109849190610fc5565b9081150290604051600060405180830381858888f193505050501580156109af573d6000803e3d6000fd5b506109fe565b6000151560011515146109fd576040517f08c379a00000000000000000000000000000000000000000000000000000000081526004016109f490610e13565b60405180910390fd5b5b5b5b505050565b60016020528060005260406000206000915090508060000154908060010154905082565b610a31610b21565b73ffffffffffffffffffffffffffffffffffffffff16610a4f6106bd565b73ffffffffffffffffffffffffffffffffffffffff1614610aa5576040517f08c379a0000000000000000000000000000000000000000000000000000000008152600401610a9c90610e93565b60405180910390fd5b600073ffffffffffffffffffffffffffffffffffffffff168173ffffffffffffffffffffffffffffffffffffffff161415610b15576040517f08c379a0000000000000000000000000000000000000000000000000000000008152600401610b0c90610e33565b60405180910390fd5b610b1e81610b29565b50565b600033905090565b60008060009054906101000a900473ffffffffffffffffffffffffffffffffffffffff169050816000806101000a81548173ffffffffffffffffffffffffffffffffffffffff021916908373ffffffffffffffffffffffffffffffffffffffff1602179055508173ffffffffffffffffffffffffffffffffffffffff168173ffffffffffffffffffffffffffffffffffffffff167f8be0079c531659141344cd1fd0a4f28419497f9722a3daafe3b4186f6b6457e060405160405180910390a35050565b6000610c00610bfb84610f01565b610edc565b90508083825260208201905082856020860282011115610c1f57600080fd5b60005b85811015610c4f5781610c358882610c59565b845260208401935060208301925050600181019050610c22565b5050509392505050565b600081359050610c688161129a565b92915050565b600082601f830112610c7f57600080fd5b8135610c8f848260208601610bed565b91505092915050565b600060208284031215610caa57600080fd5b6000610cb884828501610c59565b91505092915050565b600060208284031215610cd357600080fd5b600082013567ffffffffffffffff811115610ced57600080fd5b610cf984828501610c6e565b91505092915050565b610d0b81611053565b82525050565b6000610d1e601083610f2d565b9150610d29826111a7565b602082019050919050565b6000610d41602683610f2d565b9150610d4c826111d0565b604082019050919050565b6000610d64601d83610f2d565b9150610d6f8261121f565b602082019050919050565b6000610d87601583610f2d565b9150610d9282611248565b602082019050919050565b6000610daa602083610f2d565b9150610db582611271565b602082019050919050565b610dc981611085565b82525050565b6000602082019050610de46000830184610d02565b92915050565b6000604082019050610dff6000830185610d02565b610e0c6020830184610dc0565b9392505050565b60006020820190508181036000830152610e2c81610d11565b9050919050565b60006020820190508181036000830152610e4c81610d34565b9050919050565b60006020820190508181036000830152610e6c81610d57565b9050919050565b60006020820190508181036000830152610e8c81610d7a565b9050919050565b60006020820190508181036000830152610eac81610d9d565b9050919050565b6000604082019050610ec86000830185610dc0565b610ed56020830184610dc0565b9392505050565b6000610ee6610ef7565b9050610ef2828261108f565b919050565b6000604051905090565b600067ffffffffffffffff821115610f1c57610f1b611167565b5b602082029050602081019050919050565b600082825260208201905092915050565b6000610f4982611085565b9150610f5483611085565b9250827fffffffffffffffffffffffffffffffffffffffffffffffffffffffffffffffff03821115610f8957610f88611109565b5b828201905092915050565b6000610f9f82611085565b9150610faa83611085565b925082610fba57610fb9611138565b5b828204905092915050565b6000610fd082611085565b9150610fdb83611085565b9250817fffffffffffffffffffffffffffffffffffffffffffffffffffffffffffffffff048311821515161561101457611013611109565b5b828202905092915050565b600061102a82611085565b915061103583611085565b92508282101561104857611047611109565b5b828203905092915050565b600061105e82611065565b9050919050565b600073ffffffffffffffffffffffffffffffffffffffff82169050919050565b6000819050919050565b61109882611196565b810181811067ffffffffffffffff821117156110b7576110b6611167565b5b80604052505050565b60006110cb82611085565b91507fffffffffffffffffffffffffffffffffffffffffffffffffffffffffffffffff8214156110fe576110fd611109565b5b600182019050919050565b7f4e487b7100000000000000000000000000000000000000000000000000000000600052601160045260246000fd5b7f4e487b7100000000000000000000000000000000000000000000000000000000600052601260045260246000fd5b7f4e487b7100000000000000000000000000000000000000000000000000000000600052604160045260246000fd5b6000601f19601f8301169050919050565b7f556e6b6e6f776e206e6574776f726b2100000000000000000000000000000000600082015250565b7f4f776e61626c653a206e6577206f776e657220697320746865207a65726f206160008201527f6464726573730000000000000000000000000000000000000000000000000000602082015250565b7f596f7520646f6e27742068617665206120737562736372697074696f6e000000600082015250565b7f496e636f727265637420616d6f756e742073656e740000000000000000000000600082015250565b7f4f776e61626c653a2063616c6c6572206973206e6f7420746865206f776e6572600082015250565b6112a381611053565b81146112ae57600080fd5b5056fea264697066735822122045b9444a4fe231fdba91b87729509be948590b913010d5e8b90ad45c92fde24764736f6c63430008040033",
  "linkReferences": {},
  "deployedLinkReferences": {}
}